{
  "contractName": "Adoption",
  "abi": [
    {
      "constant": true,
      "inputs": [
        {
          "name": "",
          "type": "uint256"
        }
      ],
      "name": "adopters",
      "outputs": [
        {
          "name": "",
          "type": "address"
        }
      ],
      "payable": false,
      "stateMutability": "view",
      "type": "function"
    },
    {
      "constant": false,
      "inputs": [
        {
          "name": "petID",
          "type": "uint256"
        }
      ],
      "name": "adopt",
      "outputs": [
        {
          "name": "",
          "type": "uint256"
        }
      ],
      "payable": false,
      "stateMutability": "nonpayable",
      "type": "function"
    },
    {
      "constant": true,
      "inputs": [],
      "name": "getAdopters",
      "outputs": [
        {
          "name": "",
          "type": "address[16]"
        }
      ],
      "payable": false,
      "stateMutability": "view",
      "type": "function"
    }
  ],
  "bytecode": "0x6060604052341561000f57600080fd5b6102dd8061001e6000396000f300606060405260043610610057576000357c0100000000000000000000000000000000000000000000000000000000900463ffffffff1680633de4eb171461005c57806343ae80d3146100ad5780638588b2c514610110575b600080fd5b341561006757600080fd5b61006f610147565b6040518082601060200280838360005b8381101561009a57808201518184015260208101905061007f565b5050505090500191505060405180910390f35b34156100b857600080fd5b6100ce60048080359060200190919050506101c8565b604051808273ffffffffffffffffffffffffffffffffffffffff1673ffffffffffffffffffffffffffffffffffffffff16815260200191505060405180910390f35b341561011b57600080fd5b61013160048080359060200190919050506101fd565b6040518082815260200191505060405180910390f35b61014f610272565b60006010806020026040519081016040528092919082601080156101be576020028201915b8160009054906101000a900473ffffffffffffffffffffffffffffffffffffffff1673ffffffffffffffffffffffffffffffffffffffff1681526020019060010190808311610174575b5050505050905090565b6000816010811015156101d757fe5b016000915054906101000a900473ffffffffffffffffffffffffffffffffffffffff1681565b60008082101580156102105750600f8211155b151561021b57600080fd5b3360008360108110151561022b57fe5b0160006101000a81548173ffffffffffffffffffffffffffffffffffffffff021916908373ffffffffffffffffffffffffffffffffffffffff160217905550819050919050565b610200604051908101604052806010905b600073ffffffffffffffffffffffffffffffffffffffff1681526020019060019003908161028357905050905600a165627a7a7230582018d7876d81343f36e7657fde4306992604d1fdf2171223facee5e20229c3eaea0029",
  "source": "//pragma solidity just mean additional info only compiler cares about\r\npragma solidity ^0.4.17;\r\n\r\n//Creating first contract for Adoption of your pet\r\ncontract Adoption {\r\n\t//public have automatic getters for later access\r\n\taddress[16] public adopters;\r\n\t\r\n\t//this function just checks the validity of the petID\r\n\t//requires certain params. In this case, it is array between 0 and 15\r\n\t//if ID is okay, then address is denoted in msg.sender function \r\n\t//return petID as a confirmation\r\n\tfunction adopt(uint petID) public returns (uint) {\r\n\t\trequire(petID >= 0 && petID <= 15);\r\n\r\n\t\tadopters[petID] = msg.sender;\r\n\r\n\t\treturn petID;\r\n\t}\r\n\r\n\t//this function call just makes it easier so we don't have to makes\r\n\t//16 API calls in the above function\r\n\tfunction getAdopters () public view returns(address[16]) {\r\n\t\treturn adopters;\r\n\t}\r\n\t\r\n}\r\n\r\n",
  "sourcePath": "C:\\Users\\Sayway\\Desktop\\pet-shop-tutorial\\contracts\\Adoption.sol",
  "compiler": {
    "name": "solc",
    "version": "0.4.19+commit.c4cbbb05.Emscripten.clang"
  },
  "schemaVersion": "1.0.1",
  "updatedAt": "2018-02-24T05:12:51.208Z"
}